:020000040800F2
:100000003004002041070008A1070008A1070008EC
:10001000A1070008A1070008A107000800000000D0
:10002000000000000000000000000000A107000820
:10003000A107000800000000A1070008A1070008B0
:10004000A1070008A1070008A1070008A1070008F0
:10005000A1070008A1070008010B0008A10700087C
:10006000A1070008A1070008A1070008A1070008D0
:10007000A1070008A1070008A1070008A1070008C0
:10008000A1070008A1070008A1070008A1070008B0
:10009000A1070008A1070008A1070008A1070008A0
:1000A000A1070008A1070008A1070008A107000890
:1000B000A10700082D0C0008A1070008A1070008EF
:1000C000A1070008A1070008A1070008A107000870
:1000D000A10700082D0B0008A1070008B50B0008B8
:1000E000A1070008A1070008A10700080000000000
:1000F0000000000000000000000000000000000000
:1001000000000000000000005FF808F180B485B036
:1001100000AF786039600023FB817B681B88FB811E
:100120007B682E4A934213D07B682D4A93420FD0AE
:100130007B68B3F1804F0BD07B682A4A934207D08B
:100140007B68294A934203D07B68284A934208D1AE
:10015000FB8923F07003FB813B685A88FB891343BA
:10016000FB817B68224A93420CD07B68214A9342F0
:1001700008D0FB8923F44073FB813B68DA88FB8954
:100180001343FB817B68FA891A803B689A887B68F5
:100190009A853B681A887B681A857B680F4A934268
:1001A0000FD07B680E4A93420BD07B68124A934271
:1001B00007D07B68114A934203D07B68104A934270
:1001C00004D13B681B7A9AB27B681A867B6801224D
:1001D0009A8200BF1437BD4680BC7047002C014096
:1001E000003401400004004000080040000C0040C2
:1001F0000010004000140040004001400044014055
:100200000048014080B483B000AF78607B684FF64F
:10021000FF729A807B6800221A807B680022DA8055
:100220007B6800225A807B6800221A7200BF0C375C
:10023000BD4680BC704780B483B000AF78600B4689
:10024000FB70FB78002B08D07B681B889BB243F0C7
:1002500001039AB27B681A8007E07B681B889BB217
:1002600023F001039AB27B681A8000BF0C37BD46A9
:1002700080BC704780B483B000AF78600B467B8051
:1002800013467B707B78002B08D07B689B899AB2E1
:100290007B8813439AB27B689A8109E07B689B89CB
:1002A0009AB27B88DB439BB213409AB27B689A81F7
:1002B00000BF0C37BD4680BC704780B485B000AF2E
:1002C00078600B467B800023FB730023BB810023F7
:1002D0007B817B681B8A9AB27B881340BB817B68D9
:1002E0009B899AB27B8813407B81BB89002B05D008
:1002F0007B89002B02D00123FB7301E00023FB73F9
:10030000FB7B18461437BD4680BC704780B483B071
:1003100000AF78600B467B807B88DB439AB27B68BA
:100320001A8200BF0C37BD4680BC704780B582B0D2
:1003300000AF0123FB7109E00F21D02000F0DCF8B1
:100340000346FB71FB7903F00403FB71FB79002B7F
:10035000F2D10E21D02000F0CFF80346FB71FB79DB
:1003600043F02003FB71FB791A460E21D02000F0E8
:1003700071F81121D02000F0BFF80346DBB2184617
:100380000837BD4680BD80B582B000AF0123FB7148
:100390000F21D02000F0B0F80346FB71FB7923F069
:1003A0000103FB71FB791A460F21D02000F052F8AF
:1003B00000BF0837BD4680BD80B584B000AF03469E
:1003C000FB71FFF7E0FF0123FB730E21D02000F04B
:1003D00093F80346FB73FB79002B04D0FB7B43F0BF
:1003E0000103FB7303E0FB7B23F00103FB73FB7B47
:1003F0001A460E21D02000F02DF800BF1037BD4660
:1004000080BD000080B584B000AF78603960FF2304
:10041000FB730BE03968786801F021FD0346002B7F
:1004200001D000230DE0FB7B013BFB73FB7B002B2A
:10043000F0D1064B7F221A700121054801F098FC8B
:10044000012318461037BD4680BD00BF24000020A0
:100450000054004080B582B000AF0346FB710B46EC
:10046000BB7113467B7101211F4801F062FC1F49DB
:100470001D48FFF7C7FF0346002B01D001232FE0E3
:10048000FB7900221946184801F0CCFC184916489F
:10049000FFF7B8FF0346002B01D0012320E0BB7912
:1004A0001946114801F0A2FC12490F48FFF7AAFFB4
:1004B0000346002B01D0012312E07B7919460A483C
:1004C00001F094FC0B490848FFF79CFF0346002B02
:1004D00001D0012304E00121034801F049FC01237C
:1004E00018460837BD4680BD005400400100030097
:1004F000820007008400070080B584B000AF034687
:100500000A46FB711346BB7101212B4801F011FC17
:100510002A492948FFF776FF0346002B01D0012323
:1005200046E0FB7900221946234801F07BFC244970
:100530002148FFF767FF0346002B01D0012337E076
:10054000BB7919461C4801F051FC1E491A48FFF7B7
:1005500059FF0346002B01D0012329E00121164851
:1005600001F0E7FB15491448FFF74CFF0346002B49
:1005700001D001231CE0FB79012219460E4801F04D
:1005800051FC11490C48FFF73DFF0346002B01D0F9
:1005900001230DE0084801F038FC0346FB730021FD
:1005A000054801F004FC0121034801F0E1FBFB7B5D
:1005B00018461037BD4680BD0054004001000300BE
:1005C00082000700840007004000030080B500AFF0
:1005D000154B1B68144A43F001031360124B5A6811
:1005E0001149124B13404B600F4B1B680E4A23F00E
:1005F000847323F4803313600B4B1B680A4A23F483
:1006000080231360084B5B68074A23F4FE035360A2
:10061000054B4FF41F029A6000F00CF8044B4FF0AA
:1006200000629A6000BF80BD001002400000FFF829
:1006300000ED00E080B500AF00F002F800BF80BD23
:1006400080B483B000AF00237B6000233B603A4B53
:100650001B68394A43F480331360374B1B6803F43B
:1006600000333B607B6801337B603B68002B03D128
:100670007B68B3F5A06FF0D12F4B1B6803F40033F8
:10068000002B02D001233B6001E000233B603B686C
:10069000012B4BD1294B1B68284A43F010031360F0
:1006A000264B1B68254A23F003031360234B1B686A
:1006B000224A43F0020313601F4B1F4A5B685360DA
:1006C0001D4B1D4A5B6853601B4B5B681A4A43F421
:1006D00080635360184B5B68174A23F47C135360A4
:1006E000154B5B68144A43F4E8135360124B1B68C4
:1006F000114A43F08073136000BF0F4B1B6803F077
:100700000073002BF9D00C4B5B680B4A23F00303FA
:100710005360094B5B68084A43F00203536000BF13
:10072000054B5B6803F00C03082BF9D100BF0C37B5
:10073000BD4680BC704700BF001002400020024050
:1007400080B582B000AF114B7B60114B3B6007E07E
:100750007A68131D7B603B68191D396012681A6046
:100760003B680C4A9342F3D30B480C494FF000020C
:100770008842B8BF40F8042BFADBFFF727FF00F0F0
:100780006BFA00BF0837BD4680BD00BFF51E0008EC
:100790000000002014000020140000203000002081
:1007A00080B400AFFEE780B489B000AF78603960F4
:1007B0000023FB6100233B610023BB610023FB603E
:1007C00000237B610023BB603B68DB7803F00F03F1
:1007D000FB613B68DB7803F01003002B05D03B681E
:1007E0009B781A46FB691343FB613B681B88DBB2AD
:1007F000002B44D07B681B687B610023BB6138E021
:100800000122BB6902FA03F3FB603B681B881A46AE
:10081000FB6813403B613A69FB689A4226D1BB6989
:100820009B00FB600F22FB6802FA03F3BB60BB680E
:10083000DB437A6913407B61FA69FB6802FA03F3D0
:100840007A6913437B613B68DB78282B05D1012251
:10085000BB699A407B685A6108E03B68DB78482BAB
:1008600004D10122BB699A407B681A61BB690133DC
:10087000BB61BB69072BC3D97B687A691A603B6887
:100880001B88FF2B46D97B685B687B610023BB61BB
:100890003AE0BB690833012202FA03F3FB603B68CC
:1008A0001B881A46FB6813403B613A69FB689A4211
:1008B00027D1BB699B00FB600F22FB6802FA03F3A0
:1008C000BB60BB68DB437A6913407B61FA69FB68F4
:1008D00002FA03F37A6913437B613B68DB78282BC8
:1008E00005D1BB69083301229A407B685A613B6895
:1008F000DB78482B05D1BB69083301229A407B681D
:100900001A61BB690133BB61BB69072BC1D97B6825
:100910007A695A6000BF2437BD4680BC704780B4F6
:1009200083B000AF78607B684FF6FF721A807B68F7
:1009300002229A707B680422DA7000BF0C37BD4631
:1009400080BC704780B485B000AF78600023FB6046
:1009500002E0FB680133FB60FB687A689A42F8D8D2
:1009600000BF1437BD4680BC704780B485B000AF6F
:1009700078600023FB7307E0FB7B7A681344002256
:100980001A70FB7B0133FB73FB7B082BF4D900BF90
:100990001437BD4680BC704780B487B000AF786024
:1009A0000023FB750023FB730023BB7500237B75BD
:1009B00026E07B7D7A6813441B78BB7500233B617E
:1009C00018E0FA7DBB7D5340FB73FB7B03F0010312
:1009D000FB73FB7D5B08FB75BB7D5B08BB75FB7B1D
:1009E000002B04D0FB7D83F07303DB43FB753B6975
:1009F00001333B613B69072BE3DD7B7D01337B7575
:100A00007B7D072BD5D9FB7D18461C37BD4680BCA6
:100A10007047000090B585B000AF78607B6803F147
:100A200008041348FFF7B8FF034623700023FB7345
:100A300014E0FB7B7A6813441B78DBB29BB2194647
:100A40000C4800F0B5FF00BF40210A4800F0D0FF7D
:100A50000346002BF8D0FB7B0133FB73FB7B082B99
:100A6000E7D90348FFF781FF00BF1437BD4690BDAB
:100A7000240000200038014080B584B000AF7860C9
:100A80000023FB7313E0FB7B7A6813441B789BB253
:100A900019460A4800F08CFF00BF4021074800F0CB
:100AA000A7FF0346002BF8D0FB7B0133FB73FB7BD6
:100AB000082BE8D900BF1037BD4680BD0048004074
:100AC00080B582B000AF0346FB710A48FFF74DFFC7
:100AD000094B00221A70094B7F221A70FB79DAB297
:100AE000064B5A700548FFF795FF00BF0837BD4613
:100AF00080BD00BF180000202E0000202400002030
:100B000080B500AF074BDB68064A83F40053D3601F
:100B1000FFF739FC044B5B69034A43F0010353615F
:100B200000BF80BD001001400004014098B500AF37
:100B30001B4B1B889BB203F02003002B2ED0194BBC
:100B400002221A70164800F044FF03461946164B5D
:100B50001B78DBB21A46C9B2144B9954124B1B785E
:100B6000DBB2082B13D1104B00221A700F4B1B7AEB
:100B7000DCB20E48FFF710FF03469C4203D10C4B3A
:100B800001221A700AE00220FFF79AFF06E0064BE6
:100B90001B78DBB20133DAB2034B1A7000BF98BD89
:100BA000003801402D0000202E00002018000020F9
:100BB0001400002080B500AF184B1B889BB203F0D7
:100BC0002003002B27D0164B02221A70134800F086
:100BD00000FF03461946134B1B78DBB21A46C9B215
:100BE000114B99540F4B1B78DBB2082B0CD10D4BDA
:100BF00000221A700A4B00221A700B4B04221A7042
:100C00000948FFF707FF06E0064B1B78DBB201330C
:100C1000DAB2044B1A7000BF80BD00BF004800402C
:100C2000150000202E0000202400002080B500AF19
:100C300001210748FFF741FB0346002B06D005487A
:100C4000FFF71AFF01210248FFF760FB00BF80BDDC
:100C500000040040BC1E000880B582B000AFA34B6A
:100C600000221A70A24B00221A7000F075F900F0F1
:100C7000D1FA00F0A9F900F0F9F900F04DFA00F00E
:100C80009BFA9C4BDB689B4A83F40053D3609A4BDE
:100C90001B78DBB2012B40F0F580954B00221A70D7
:100CA000954B00221A70954B1B78002B12D0944B59
:100CB0001B78DBB2092B0DD8904B00221A7091489B
:100CC00000F014FF9048FFF73DFE00F0A3FA8E48B5
:100CD000FFF738FE8A4B1B78DAB28C4B1A70884BC0
:100CE0001B78DBB2042B00F2B98001A252F823F08A
:100CF0002F0D0008050D00085D0D00086B0D0008A4
:100D00000D0E00080323FB710EE0FB79591EFB79E1
:100D1000C3F104037A4AD35CDBB21A46D020FFF752
:100D200099FBFB79013BFB71FB79002BEDD1032390
:100D3000BB710FE0BB79013B1946D020FFF7DCFB0C
:100D40000246BB79C3F10403D1B2704AD154BB79D6
:100D5000013BBB71BB79002BECD17FE0FFF7E6FADA
:100D600003461A46694B5A7078E0654B5B79DBB2F3
:100D7000002B29D0624B1B79DBB2022B05D0604BD4
:100D80001B79DBB21846FFF717FB5D4B1B79DBB213
:100D9000022B14D103237B710EE07B79991D7B79A3
:100DA000C3F10403564AD35CDBB21A46D020FFF7E6
:100DB00051FB7B79013B7B717B79002BEDD180224C
:100DC0000A21D020FFF746FB03233B710FE03B795C
:100DD00006331946D020FFF78FFB02463B79C3F15B
:100DE0000403D1B2494AD1543B79013B3B713B7971
:100DF000002BECD10E21D020FFF77EFB0346DBB2A7
:100E000003F00103DAB2414B1A7127E03C4B5B78E7
:100E1000DBB2042B21D801A252F823F0310E0008D6
:100E20003B0E0008430E00084B0E0008530E00084E
:100E300001213748FFF7FFF90FE03648FFF71CFEA6
:100E40000BE03548FFF718FE07E03448FFF714FEC3
:100E500003E03348FFF710FE00BF00BF2B4B1B78A9
:100E6000DBB27F2B08D0294B1B78DBB2042B09D0D7
:100E70002648FFF7CFFD05E00320FFF721FE1F4BBB
:100E800001221A701A4B1B78DBB2002B12D04CF2E5
:100E90005030FFF757FD164B1B78DBB2013BDAB23F
:100EA000134B1A70124B1B78DBB2002B02D10120BE
:100EB000FFF706FE1B4B1B78DBB2002B3FF4E7AEBF
:100EC0004CF25030FFF73EFD164B1B78DBB2013B76
:100ED000DAB2144B1A70134B1B78DBB2002B7FF481
:100EE000D6AE024B00221A70D1E600BF2E000020C1
:100EF0002D000020001001401400002016000020EA
:100F0000180000200054004090D00300240000206E
:100F100000040040C81E0008D41E0008E01E00089F
:100F2000EC1E00081500002080B483B000AF03461B
:100F3000FB71FB7903F01F03012202FA03F1054A5A
:100F400097F907305B0942F8231000BF0C37BD4604
:100F500080BC704700E100E080B582B000AF00F0D7
:100F600093F94FF4803000F0BDF900F0E9F9034641
:100F7000FB71FB79012B23D1002000F061FA0020E6
:100F800000F096FA4FF4806000F076FA4FF4E0112A
:100F90004FF4803000F0FCF9012000F017FA00BF98
:100FA000392000F0ABFB0346002BF9D0022000F003
:100FB0001DFA00BF00F036FA0346082BFAD100E014
:100FC000FEE70837BD4680BD80B586B000AF012181
:100FD00044F2040000F038FB25233B7500237B75A9
:100FE0000023BB750123FB7507F11403184600F0BD
:100FF0001BFD4FF400733B821823FB740323BB7467
:1010000007F1100319461748FFF7CDFB4FF4806333
:101010003B820423FB7407F1100319461148FFF7C4
:10102000C2FB4FF4E1333B600023BB800023FB8015
:1010300000233B810023BB810C237B813B46194667
:10104000094800F095FB0121074800F04BFC012204
:1010500040F22551044800F064FC00BF1837BD463B
:1010600080BD00BF000801400038014080B586B057
:1010700000AF01214FF4802000F004FB0121082083
:1010800000F0E2FA27233B7500237B750023BB7534
:101090000123FB7507F11403184600F0C5FC4FF45B
:1010A00080633B821823FB740323BB7407F1100396
:1010B00019461748FFF777FB4FF400633B82042380
:1010C000FB7407F1100319461148FFF76CFB4FF44E
:1010D00016533B600023BB800023FB8000233B8131
:1010E0000023BB810C237B813B461946094800F055
:1010F0003FFB0121074800F0F5FB012240F225519A
:10110000044800F00EFC00BF1837BD4680BD00BF8C
:10111000000C01400048004080B582B000AF0121C2
:10112000042000F091FA3B1D1846FFF7F8FB10234E
:10113000FB710723BB800223BB713B1D19461A4874
:10114000FFF731FB0121102000F07EFA1023FB7124
:101150004FF40053BB800223BB713B1D194613485B
:10116000FFF721FB0121082000F06EFA0121012088
:1011700000F06AFA0E4B9B680D4A43F0010393603E
:101180000C4B1B680B4A43F001031360094BDB68EF
:10119000084A43F00103D3600620FFF7C5FE00BFF5
:1011A0000837BD4680BD00BF000801400010014067
:1011B000000001400004014080B584B000AF01216F
:1011C000022000F05FFA3B1D1846FFF71BF84FF4B2
:1011D000E153BB804CF250333B813B1D19460C4818
:1011E000FEF794FF012201210948FFF743F81D2370
:1011F0003B7000237B700023BB700123FB703B46D8
:10120000184600F011FC00BF1037BD4680BD00BF7E
:101210000004004080B586B000AF0121092000F035
:1012200013FA0223BB751C23FB75C023BB8207F195
:10123000140319461148FFF7B6FA01214FF40010C4
:1012400000F020FA3B1D184600F036FD0C4B7B6089
:101250000123BB814FF48063FB813B1D1946094884
:1012600000F068FC0121074800F044FD0121054819
:1012700000F09DFD00BF1837BD4680BD000C014049
:10128000A08601000054004080B400AF134B1B68DF
:10129000124A43F001031360104B5A680F49104B78
:1012A00013404B600D4B1B680C4A23F0847323F4EE
:1012B00080331360094B1B68084A23F480231360B2
:1012C000064B5B68054A23F4FE035360034B4FF45F
:1012D0001F029A6000BFBD4680BC704700100240EC
:1012E0000000FFF880B483B000AF7860134B1B6838
:1012F000124A23F480331360104B1B680F4A23F407
:10130000802313607B68B3F5803F03D0B3F5802F53
:1013100007D00DE0094B1B68084A43F48033136083
:1013200006E0064B1B68054A43F4A023136000BF88
:1013300000BF0C37BD4680BC704700BF00100240A4
:1013400080B582B000AF00233B600023FB71002317
:10135000BB71312000F0D2F90346BB713B68013309
:101360003B603B68B3F5A06F02D0BB79002BF0D097
:10137000312000F0C3F90346002B02D00123FB719A
:1013800001E00023FB71FB7918460837BD4680BD9C
:1013900080B485B000AF786039600023FB600A4BF1
:1013A0005B68FB60FB6823F47C13FB607A683B6836
:1013B0001343FA681343FB60034AFB68536000BFA2
:1013C0001437BD4680BC70470010024080B483B023
:1013D00000AF0346FB71044AFB79136000BF0C3772
:1013E000BD4680BC704700BF6000424280B485B0FB
:1013F00000AF78600023FB60094B5B68FB60FB6813
:1014000023F00303FB60FA687B681343FB60044A24
:10141000FB68536000BF1437BD4680BC704700BFF7
:101420000010024080B400AF044B5B68DBB203F0F5
:101430000C03DBB21846BD4680BC7047001002406A
:1014400080B485B000AF78600023FB60094B5B6817
:10145000FB60FB6823F0F003FB60FA687B681343D2
:10146000FB60044AFB68536000BF1437BD4680BC74
:10147000704700BF0010024080B485B000AF7860B4
:101480000023FB60094B5B68FB60FB6823F4E063AF
:10149000FB60FA687B681343FB60044AFB68536097
:1014A00000BF1437BD4680BC704700BF001002402B
:1014B00080B485B000AF78600023FB60094B5B68A7
:1014C000FB60FB6823F46053FB607B68DB00FA6819
:1014D0001343FB60034AFB68536000BF1437BD46EB
:1014E00080BC70470010024080B487B000AF7860C5
:1014F00000237B6100233B610023FB600023BB6072
:101500004C4B5B6803F00C037B617B69042B07D0B9
:10151000082B09D0002B33D17B68474A1A6033E08F
:101520007B68454A1A602FE0424B5B6803F47013F6
:101530003B61404B5B6803F48033FB603B699B0C71
:1015400002333B61FB68002B06D13B693B4A02FB3F
:1015500003F27B681A6017E0364B5B6803F40033D4
:10156000002B06D03B69354A02FB03F27B681A6008
:101570000AE03B69304A02FB03F27B681A6003E031
:101580007B682D4A1A6000BF2A4B5B6803F0F003AA
:101590007B617B691B097B61294A7B6913441B784A
:1015A000DBB2BB607B681A68BB68DA407B685A6054
:1015B000204B5B6803F4E0637B617B691B0A7B6102
:1015C0001F4A7B6913441B78DBB2BB607B685A6897
:1015D000BB68DA407B689A60164B5B6803F4605323
:1015E0007B617B69DB0A7B61154A7B6913441B784D
:1015F000DBB2BB607B685A68BB68DA407B68DA6044
:101600000C4B5B6803F440437B617B699B0B7B6104
:101610000C4A7B6913441B78DBB2BB607B68DA68D9
:10162000BB68B2FBF3F27B681A6100BF1C37BD4692
:1016300080BC70470010024000127A0000093D0093
:10164000000000201000002080B483B000AF78605C
:101650000B46FB70FB78002B06D0094B9A690849B2
:101660007B6813438B6106E0054B9A697B68DB431B
:10167000034913408B6100BF0C37BD4680BC7047E7
:101680000010024080B483B000AF78600B46FB705E
:10169000FB78002B06D0094BDA6908497B681343B5
:1016A000CB6106E0054BDA697B68DB4303491340F5
:1016B000CB6100BF0C37BD4680BC704700100240B4
:1016C00080B483B000AF78600B46FB70FB78002BD2
:1016D00006D0094B1A6908497B6813430B6106E081
:1016E000054B1A697B68DB43034913400B6100BF5C
:1016F0000C37BD4680BC70470010024080B487B0F4
:1017000000AF0346FB710023FB6000237B610023D5
:10171000FB74FB795B09DBB2FB60FB68012B03D137
:10172000124B1B687B6109E0FB68022B03D10F4B56
:101730001B6A7B6102E00D4B5B6A7B61FB7903F006
:101740001F03FB607A69FB6822FA03F303F00103CD
:10175000002B02D00123FB7401E00023FB74FB7C0F
:1017600018461C37BD4680BC704700BF00100240C1
:1017700080B58CB000AF786039600023FB62002335
:10178000BB6200237B6200233B620023FB617B681A
:10179000FB617B681B8A9BB2FB62FA6A4CF6FF73A3
:1017A0001340FB623B68DB881A46FB6A1343FB620B
:1017B000FB6A9AB27B681A827B689B899BB2FB6248
:1017C000FA6A4EF6F3131340FB623B689A883B6853
:1017D0001B8913439AB23B685B8913439BB21A4639
:1017E000FB6A1343FB62FB6A9AB27B689A817B684F
:1017F0009B8A9BB2FB62FA6A4FF6FF431340FB627F
:101800003B689B891A46FB6A1343FB62FB6A9AB2E8
:101810007B689A8207F108031846FFF765FEFB69AB
:101820002E4A934202D17B69BB6201E03B69BB62F5
:101830007B689B899BB21BB2002B0CDABA6A1346F9
:101840009B0013449A001A443B681B685B00B2FB80
:10185000F3F37B620BE0BA6A13469B0013449A00D1
:101860001A443B681B689B00B2FBF3F37B627B6A04
:101870001B4AA2FB03235B091B01FB62FB6A1B09DA
:10188000642202FB03F37A6AD31A3B627B689B896A
:101890009BB21BB2002B0CDA3B6ADB003233104ADE
:1018A000A2FB03235B0903F00703FA6A1343FB62FD
:1018B0000BE03B6A1B013233094AA2FB03235B099D
:1018C00003F00F03FA6A1343FB62FB6A9AB27B6868
:1018D0001A8100BF3037BD4680BD00BF00380140CF
:1018E0001F85EB5180B483B000AF78600B46FB706E
:1018F000FB78002B08D07B689B899BB243F4005394
:101900009AB27B689A8107E07B689B899BB223F43B
:1019100000539AB27B689A8100BF0C37BD4680BCE9
:10192000704780B487B000AF78600B467B80134669
:101930007B7000233B610023FB600023BB6000231E
:101940007B617B687B617B88DBB25B09DBB23B61DF
:101950007B8803F01F03FB600122FB6802FA03F39C
:10196000BB603B69012B03D17B690C337B6109E0D0
:101970003B69022B03D17B6910337B6102E07B69F9
:1019800014337B617B78002B06D07B6919687B69F7
:10199000BA680A431A6006E07B691968BB68DA43D3
:1019A0007B690A401A6000BF1C37BD4680BC704787
:1019B00080B483B000AF78600B467B807B88C3F334
:1019C00008039AB27B689A8000BF0C37BD4680BC82
:1019D000704780B483B000AF78607B689B889BB20F
:1019E000C3F308039BB218460C37BD4680BC704752
:1019F00080B485B000AF78600B467B800023FB731A
:101A00007B681B889AB27B8813409BB2002B02D064
:101A10000123FB7301E00023FB73FB7B18461437A3
:101A2000BD4680BC7047000080B487B000AF7860CE
:101A300000237B6100233B610F23FB607B68DB7825
:101A4000002B3AD0274BDB68DB431B0A03F007036C
:101A50007B617B69C3F104033B61FA687B6922FA0D
:101A600003F3FB607B685B781A463B6902FA03F379
:101A70007B617B689B781A46FB6813407A69134345
:101A80007B617B691B017B61174A7B681B787969E5
:101A9000C9B213440A4683F800237B681B7803F01D
:101AA0001F0311497A6812785209D2B210460122F6
:101AB00002FA03F341F820300FE07B681B7803F053
:101AC0001F0309497A6812785209D2B210460122DE
:101AD0009A4000F1200341F8232000BF1C37BD4687
:101AE00080BC704700ED00E000E100E080B582B00E
:101AF00000AF78607B680E4A93420AD101214FF40F
:101B00000010FFF7DDFD00214FF40010FFF7D8FDB6
:101B100009E001214FF48000FFF7D2FD00214FF4CE
:101B20008000FFF7CDFD00BF0837BD4680BD00BF78
:101B30000054004080B58AB000AF7860396000235F
:101B4000FB8400237B840423BB84574BFB617B68AD
:101B50009B88FB84FB8C23F03F03FB8407F1080385
:101B60001846FFF7C1FC3B69FB61FB694F4AA2FBCA
:101B700003239B0C7B84FA8C7B8C1343FB847B6854
:101B8000FA8C9A807B681B889BB223F001039AB27F
:101B90007B681A800023FB843B681B68444A93429D
:101BA00015D83B681B685B00FA69B2FBF3F3BB8492
:101BB000BB8C032B01D80423BB84FA8CBB8C13434E
:101BC000FB847B8C01339AB27B681A8440E03B68CB
:101BD000DB884BF6FF72934209D13B681A681346C3
:101BE0005B001344FA69B2FBF3F3BB840EE03B687D
:101BF0001A6813469B0013449A001344FA69B2FB17
:101C0000F3F3BB84BB8C43F48043BB84BB8CC3F332
:101C10000B03002B03D1BB8C43F00103BB84BA8CB4
:101C2000FB8C13439BB26FEA43436FEA5343FB843D
:101C30007B8C4FF4967202FB03F31E4A82FB031265
:101C40009211DB17D31A9BB201339AB27B681A84C4
:101C50007B68FA8C9A837B681B889BB243F00103F4
:101C60009AB27B681A807B681B88FB84FB8C23F408
:101C7000816323F00203FB843B689A883B685B899D
:101C800013439AB2FB8C1343FB847B68FA8C1A8053
:101C90003B689A893B681B8913439AB27B681A8117
:101CA00000BF2837BD4680BD00127A0083DE1B438B
:101CB000A0860100D34D621080B483B000AF78607D
:101CC0007B6841F288321A607B6800229A807B68C8
:101CD0004BF6FF72DA807B6800221A817B68002253
:101CE0005A817B684FF480429A8100BF0C37BD4611
:101CF00080BC704780B483B000AF78600B46FB7047
:101D0000FB78002B08D07B681B889BB243F0010353
:101D10009AB27B681A8007E07B681B889BB223F02D
:101D200001039AB27B681A8000BF0C37BD4680BCA5
:101D3000704780B483B000AF78600B46FB70FB78CF
:101D4000002B08D07B681B889BB243F480739AB247
:101D50007B681A8007E07B681B889BB223F4807342
:101D60009AB27B681A8000BF0C37BD4680BC7047B2
:101D700080B483B000AF78600B46FB70FB78002B1B
:101D800008D07B681B889BB243F400739AB27B68CF
:101D90001A8007E07B681B889BB223F400739AB219
:101DA0007B681A8000BF0C37BD4680BC704780B48A
:101DB00083B000AF78600B46FB70FB78002B08D037
:101DC0007B681B889BB243F480639AB27B681A805D
:101DD00007E07B681B889BB223F480639AB27B6820
:101DE0001A8000BF0C37BD4680BC704780B483B0FA
:101DF00000AF78600B46FB70FB789AB27B681A8262
:101E000000BF0C37BD4680BC704780B483B000AFC4
:101E100078607B681B8A9BB2DBB218460C37BD46E4
:101E200080BC704780B483B000AF78600B46FB7015
:101E30001346BB70BB78002B04D0FB7843F0010342
:101E4000FB7003E0FB7823F00103FB70FB789AB290
:101E50007B681A8200BF0C37BD4680BC704780B4D7
:101E600087B000AF7860396000233B610023FB60DE
:101E70000023BB600023FB757B689B8A9BB2FB60E1
:101E80007B681B8B9BB2BB60BB681B04BB60FA68A2
:101E9000BB68134323F07F433B613A693B681340BF
:101EA0003A689A4202D10123FB7501E00023FB75D9
:101EB000FB7D18461C37BD4680BC7047FF0186007D
:101EC0000000000079000000FF019900000007D029
:101ED0008F000000FF01990000001388CB00000074
:101EE000FF0179000000000086000000FF0188006B
:051EF000000007D0A076
:101EF50000000000010203040102030406070809AB
:041F050002040608C4
:0400000508000000EF
:00000001FF
